{
  "_format": "hh-sol-artifact-1",
  "contractName": "VideoStreaming",
  "sourceName": "contracts/VideoStreaming.sol",
  "abi": [
    {
      "anonymous": false,
      "inputs": [
        {
          "indexed": false,
          "internalType": "string",
          "name": "ipfsHash",
          "type": "string"
        },
        {
          "indexed": false,
          "internalType": "address",
          "name": "buyer",
          "type": "address"
        }
      ],
      "name": "VideoPurchased",
      "type": "event"
    },
    {
      "anonymous": false,
      "inputs": [
        {
          "indexed": false,
          "internalType": "string",
          "name": "ipfsHash",
          "type": "string"
        },
        {
          "indexed": false,
          "internalType": "address",
          "name": "owner",
          "type": "address"
        },
        {
          "indexed": false,
          "internalType": "uint256",
          "name": "price",
          "type": "uint256"
        }
      ],
      "name": "VideoUploaded",
      "type": "event"
    },
    {
      "inputs": [
        {
          "internalType": "address",
          "name": "",
          "type": "address"
        }
      ],
      "name": "balances",
      "outputs": [
        {
          "internalType": "uint256",
          "name": "",
          "type": "uint256"
        }
      ],
      "stateMutability": "view",
      "type": "function"
    },
    {
      "inputs": [
        {
          "internalType": "string",
          "name": "_ipfsHash",
          "type": "string"
        },
        {
          "internalType": "address",
          "name": "_user",
          "type": "address"
        }
      ],
      "name": "hasPurchased",
      "outputs": [
        {
          "internalType": "bool",
          "name": "",
          "type": "bool"
        }
      ],
      "stateMutability": "view",
      "type": "function"
    },
    {
      "inputs": [
        {
          "internalType": "string",
          "name": "_ipfsHash",
          "type": "string"
        }
      ],
      "name": "purchaseVideo",
      "outputs": [],
      "stateMutability": "payable",
      "type": "function"
    },
    {
      "inputs": [
        {
          "internalType": "string",
          "name": "_ipfsHash",
          "type": "string"
        },
        {
          "internalType": "uint256",
          "name": "_price",
          "type": "uint256"
        }
      ],
      "name": "uploadVideo",
      "outputs": [],
      "stateMutability": "nonpayable",
      "type": "function"
    },
    {
      "inputs": [
        {
          "internalType": "string",
          "name": "",
          "type": "string"
        },
        {
          "internalType": "address",
          "name": "",
          "type": "address"
        }
      ],
      "name": "videoPurchasers",
      "outputs": [
        {
          "internalType": "bool",
          "name": "",
          "type": "bool"
        }
      ],
      "stateMutability": "view",
      "type": "function"
    },
    {
      "inputs": [
        {
          "internalType": "string",
          "name": "",
          "type": "string"
        }
      ],
      "name": "videos",
      "outputs": [
        {
          "internalType": "string",
          "name": "ipfsHash",
          "type": "string"
        },
        {
          "internalType": "address",
          "name": "owner",
          "type": "address"
        },
        {
          "internalType": "uint256",
          "name": "price",
          "type": "uint256"
        },
        {
          "internalType": "bool",
          "name": "isAvailable",
          "type": "bool"
        }
      ],
      "stateMutability": "view",
      "type": "function"
    },
    {
      "inputs": [],
      "name": "withdraw",
      "outputs": [],
      "stateMutability": "nonpayable",
      "type": "function"
    }
  ],
  "bytecode": "0x608060405234801561001057600080fd5b5061129c806100206000396000f3fe6080604052600436106100705760003560e01c80633ccfd60b1161004e5780633ccfd60b1461010b5780636ef4de9e14610122578063f6dd5e7114610162578063f94afe781461018b57610070565b80631a67f1b81461007557806327e235e3146100915780632dc6a5b8146100ce575b600080fd5b61008f600480360381019061008a91906109b8565b6101c8565b005b34801561009d57600080fd5b506100b860048036038101906100b39190610a5f565b6103ac565b6040516100c59190610aa5565b60405180910390f35b3480156100da57600080fd5b506100f560048036038101906100f09190610ac0565b6103c4565b6040516101029190610b37565b60405180910390f35b34801561011757600080fd5b50610120610437565b005b34801561012e57600080fd5b50610149600480360381019061014491906109b8565b61054d565b6040516101599493929190610be0565b60405180910390f35b34801561016e57600080fd5b5061018960048036038101906101849190610c58565b610648565b005b34801561019757600080fd5b506101b260048036038101906101ad9190610ac0565b610819565b6040516101bf9190610b37565b60405180910390f35b600080826040516101d99190610cf0565b908152602001604051809103902090508060030160009054906101000a900460ff1661023a576040517f08c379a000000000000000000000000000000000000000000000000000000000815260040161023190610d53565b60405180910390fd5b8060020154341015610281576040517f08c379a000000000000000000000000000000000000000000000000000000000815260040161027890610dbf565b60405180910390fd5b34600160008360010160009054906101000a900473ffffffffffffffffffffffffffffffffffffffff1673ffffffffffffffffffffffffffffffffffffffff1673ffffffffffffffffffffffffffffffffffffffff16815260200190815260200160002060008282546102f49190610e0e565b92505081905550600160028360405161030d9190610cf0565b908152602001604051809103902060003373ffffffffffffffffffffffffffffffffffffffff1673ffffffffffffffffffffffffffffffffffffffff16815260200190815260200160002060006101000a81548160ff0219169083151502179055507f835676d6be7c17cdcbf297f22f38f6f08123bfa9383bc163e6e4279d649f0c1f82336040516103a0929190610e42565b60405180910390a15050565b60016020528060005260406000206000915090505481565b60006002836040516103d69190610cf0565b908152602001604051809103902060008373ffffffffffffffffffffffffffffffffffffffff1673ffffffffffffffffffffffffffffffffffffffff16815260200190815260200160002060009054906101000a900460ff16905092915050565b6000600160003373ffffffffffffffffffffffffffffffffffffffff1673ffffffffffffffffffffffffffffffffffffffff168152602001908152602001600020549050600081116104be576040517f08c379a00000000000000000000000000000000000000000000000000000000081526004016104b590610ebe565b60405180910390fd5b6000600160003373ffffffffffffffffffffffffffffffffffffffff1673ffffffffffffffffffffffffffffffffffffffff168152602001908152602001600020819055503373ffffffffffffffffffffffffffffffffffffffff166108fc829081150290604051600060405180830381858888f19350505050158015610549573d6000803e3d6000fd5b5050565b60008180516020810182018051848252602083016020850120818352809550505050505060009150905080600001805461058690610f0d565b80601f01602080910402602001604051908101604052809291908181526020018280546105b290610f0d565b80156105ff5780601f106105d4576101008083540402835291602001916105ff565b820191906000526020600020905b8154815290600101906020018083116105e257829003601f168201915b5050505050908060010160009054906101000a900473ffffffffffffffffffffffffffffffffffffffff16908060020154908060030160009054906101000a900460ff16905084565b600073ffffffffffffffffffffffffffffffffffffffff166000836040516106709190610cf0565b908152602001604051809103902060010160009054906101000a900473ffffffffffffffffffffffffffffffffffffffff1673ffffffffffffffffffffffffffffffffffffffff16146106f8576040517f08c379a00000000000000000000000000000000000000000000000000000000081526004016106ef90610f8a565b60405180910390fd5b60405180608001604052808381526020013373ffffffffffffffffffffffffffffffffffffffff168152602001828152602001600115158152506000836040516107429190610cf0565b908152602001604051809103902060008201518160000190816107659190611156565b5060208201518160010160006101000a81548173ffffffffffffffffffffffffffffffffffffffff021916908373ffffffffffffffffffffffffffffffffffffffff1602179055506040820151816002015560608201518160030160006101000a81548160ff0219169083151502179055509050507fe11cd7020b9addfdf5f8931a4fd7d51909dfa3a7774742575adf48e88f4a284d82338360405161080d93929190611228565b60405180910390a15050565b6002828051602081018201805184825260208301602085012081835280955050505050506020528060005260406000206000915091509054906101000a900460ff1681565b6000604051905090565b600080fd5b600080fd5b600080fd5b600080fd5b6000601f19601f8301169050919050565b7f4e487b7100000000000000000000000000000000000000000000000000000000600052604160045260246000fd5b6108c58261087c565b810181811067ffffffffffffffff821117156108e4576108e361088d565b5b80604052505050565b60006108f761085e565b905061090382826108bc565b919050565b600067ffffffffffffffff8211156109235761092261088d565b5b61092c8261087c565b9050602081019050919050565b82818337600083830152505050565b600061095b61095684610908565b6108ed565b90508281526020810184848401111561097757610976610877565b5b610982848285610939565b509392505050565b600082601f83011261099f5761099e610872565b5b81356109af848260208601610948565b91505092915050565b6000602082840312156109ce576109cd610868565b5b600082013567ffffffffffffffff8111156109ec576109eb61086d565b5b6109f88482850161098a565b91505092915050565b600073ffffffffffffffffffffffffffffffffffffffff82169050919050565b6000610a2c82610a01565b9050919050565b610a3c81610a21565b8114610a4757600080fd5b50565b600081359050610a5981610a33565b92915050565b600060208284031215610a7557610a74610868565b5b6000610a8384828501610a4a565b91505092915050565b6000819050919050565b610a9f81610a8c565b82525050565b6000602082019050610aba6000830184610a96565b92915050565b60008060408385031215610ad757610ad6610868565b5b600083013567ffffffffffffffff811115610af557610af461086d565b5b610b018582860161098a565b9250506020610b1285828601610a4a565b9150509250929050565b60008115159050919050565b610b3181610b1c565b82525050565b6000602082019050610b4c6000830184610b28565b92915050565b600081519050919050565b600082825260208201905092915050565b60005b83811015610b8c578082015181840152602081019050610b71565b60008484015250505050565b6000610ba382610b52565b610bad8185610b5d565b9350610bbd818560208601610b6e565b610bc68161087c565b840191505092915050565b610bda81610a21565b82525050565b60006080820190508181036000830152610bfa8187610b98565b9050610c096020830186610bd1565b610c166040830185610a96565b610c236060830184610b28565b95945050505050565b610c3581610a8c565b8114610c4057600080fd5b50565b600081359050610c5281610c2c565b92915050565b60008060408385031215610c6f57610c6e610868565b5b600083013567ffffffffffffffff811115610c8d57610c8c61086d565b5b610c998582860161098a565b9250506020610caa85828601610c43565b9150509250929050565b600081905092915050565b6000610cca82610b52565b610cd48185610cb4565b9350610ce4818560208601610b6e565b80840191505092915050565b6000610cfc8284610cbf565b915081905092915050565b7f566964656f206973206e6f7420617661696c61626c6500000000000000000000600082015250565b6000610d3d601683610b5d565b9150610d4882610d07565b602082019050919050565b60006020820190508181036000830152610d6c81610d30565b9050919050565b7f496e73756666696369656e74207061796d656e74000000000000000000000000600082015250565b6000610da9601483610b5d565b9150610db482610d73565b602082019050919050565b60006020820190508181036000830152610dd881610d9c565b9050919050565b7f4e487b7100000000000000000000000000000000000000000000000000000000600052601160045260246000fd5b6000610e1982610a8c565b9150610e2483610a8c565b9250828201905080821115610e3c57610e3b610ddf565b5b92915050565b60006040820190508181036000830152610e5c8185610b98565b9050610e6b6020830184610bd1565b9392505050565b7f4e6f2066756e647320746f207769746864726177000000000000000000000000600082015250565b6000610ea8601483610b5d565b9150610eb382610e72565b602082019050919050565b60006020820190508181036000830152610ed781610e9b565b9050919050565b7f4e487b7100000000000000000000000000000000000000000000000000000000600052602260045260246000fd5b60006002820490506001821680610f2557607f821691505b602082108103610f3857610f37610ede565b5b50919050565b7f566964656f20616c726561647920657869737473000000000000000000000000600082015250565b6000610f74601483610b5d565b9150610f7f82610f3e565b602082019050919050565b60006020820190508181036000830152610fa381610f67565b9050919050565b60008190508160005260206000209050919050565b60006020601f8301049050919050565b600082821b905092915050565b60006008830261100c7fffffffffffffffffffffffffffffffffffffffffffffffffffffffffffffffff82610fcf565b6110168683610fcf565b95508019841693508086168417925050509392505050565b6000819050919050565b600061105361104e61104984610a8c565b61102e565b610a8c565b9050919050565b6000819050919050565b61106d83611038565b6110816110798261105a565b848454610fdc565b825550505050565b600090565b611096611089565b6110a1818484611064565b505050565b5b818110156110c5576110ba60008261108e565b6001810190506110a7565b5050565b601f82111561110a576110db81610faa565b6110e484610fbf565b810160208510156110f3578190505b6111076110ff85610fbf565b8301826110a6565b50505b505050565b600082821c905092915050565b600061112d6000198460080261110f565b1980831691505092915050565b6000611146838361111c565b9150826002028217905092915050565b61115f82610b52565b67ffffffffffffffff8111156111785761117761088d565b5b6111828254610f0d565b61118d8282856110c9565b600060209050601f8311600181146111c057600084156111ae578287015190505b6111b8858261113a565b865550611220565b601f1984166111ce86610faa565b60005b828110156111f6578489015182556001820191506020850194506020810190506111d1565b86831015611213578489015161120f601f89168261111c565b8355505b6001600288020188555050505b505050505050565b600060608201905081810360008301526112428186610b98565b90506112516020830185610bd1565b61125e6040830184610a96565b94935050505056fea26469706673582212204d1c0aa2787225efcb6b398a5aff0f14c35354ed07a9a541c6e1efe5cedaad7764736f6c63430008180033",
  "linkReferences": {},
  "deployedLinkReferences": {}
}