{
  "_format": "hh-sol-artifact-1",
  "contractName": "VideoStreaming",
  "sourceName": "contracts/VideoStreaming.sol",
  "abi": [
    {
      "anonymous": false,
      "inputs": [
        {
          "indexed": false,
          "internalType": "string",
          "name": "ipfsHash",
          "type": "string"
        },
        {
          "indexed": false,
          "internalType": "address",
          "name": "buyer",
          "type": "address"
        }
      ],
      "name": "VideoPurchased",
      "type": "event"
    },
    {
      "anonymous": false,
      "inputs": [
        {
          "indexed": false,
          "internalType": "string",
          "name": "ipfsHash",
          "type": "string"
        },
        {
          "indexed": false,
          "internalType": "address",
          "name": "owner",
          "type": "address"
        },
        {
          "indexed": false,
          "internalType": "uint256",
          "name": "price",
          "type": "uint256"
        }
      ],
      "name": "VideoUploaded",
      "type": "event"
    },
    {
      "inputs": [
        {
          "internalType": "address",
          "name": "",
          "type": "address"
        }
      ],
      "name": "balances",
      "outputs": [
        {
          "internalType": "uint256",
          "name": "",
          "type": "uint256"
        }
      ],
      "stateMutability": "view",
      "type": "function"
    },
    {
      "inputs": [
        {
          "internalType": "string",
          "name": "_ipfsHash",
          "type": "string"
        }
      ],
      "name": "purchaseVideo",
      "outputs": [],
      "stateMutability": "payable",
      "type": "function"
    },
    {
      "inputs": [
        {
          "internalType": "string",
          "name": "_ipfsHash",
          "type": "string"
        },
        {
          "internalType": "uint256",
          "name": "_price",
          "type": "uint256"
        }
      ],
      "name": "uploadVideo",
      "outputs": [],
      "stateMutability": "nonpayable",
      "type": "function"
    },
    {
      "inputs": [
        {
          "internalType": "string",
          "name": "",
          "type": "string"
        }
      ],
      "name": "videos",
      "outputs": [
        {
          "internalType": "string",
          "name": "ipfsHash",
          "type": "string"
        },
        {
          "internalType": "address",
          "name": "owner",
          "type": "address"
        },
        {
          "internalType": "uint256",
          "name": "price",
          "type": "uint256"
        },
        {
          "internalType": "bool",
          "name": "isAvailable",
          "type": "bool"
        }
      ],
      "stateMutability": "view",
      "type": "function"
    },
    {
      "inputs": [],
      "name": "withdraw",
      "outputs": [],
      "stateMutability": "nonpayable",
      "type": "function"
    }
  ],
  "bytecode": "0x608060405234801561001057600080fd5b50611059806100206000396000f3fe60806040526004361061004a5760003560e01c80631a67f1b81461004f57806327e235e31461006b5780633ccfd60b146100a85780636ef4de9e146100bf578063f6dd5e71146100ff575b600080fd5b610069600480360381019061006491906107ec565b610128565b005b34801561007757600080fd5b50610092600480360381019061008d9190610893565b610298565b60405161009f91906108d9565b60405180910390f35b3480156100b457600080fd5b506100bd6102b0565b005b3480156100cb57600080fd5b506100e660048036038101906100e191906107ec565b6103c6565b6040516100f6949392919061099d565b60405180910390f35b34801561010b57600080fd5b5061012660048036038101906101219190610a15565b6104c1565b005b600080826040516101399190610aad565b908152602001604051809103902090508060030160009054906101000a900460ff1661019a576040517f08c379a000000000000000000000000000000000000000000000000000000000815260040161019190610b10565b60405180910390fd5b80600201543410156101e1576040517f08c379a00000000000000000000000000000000000000000000000000000000081526004016101d890610b7c565b60405180910390fd5b34600160008360010160009054906101000a900473ffffffffffffffffffffffffffffffffffffffff1673ffffffffffffffffffffffffffffffffffffffff1673ffffffffffffffffffffffffffffffffffffffff16815260200190815260200160002060008282546102549190610bcb565b925050819055507f835676d6be7c17cdcbf297f22f38f6f08123bfa9383bc163e6e4279d649f0c1f823360405161028c929190610bff565b60405180910390a15050565b60016020528060005260406000206000915090505481565b6000600160003373ffffffffffffffffffffffffffffffffffffffff1673ffffffffffffffffffffffffffffffffffffffff16815260200190815260200160002054905060008111610337576040517f08c379a000000000000000000000000000000000000000000000000000000000815260040161032e90610c7b565b60405180910390fd5b6000600160003373ffffffffffffffffffffffffffffffffffffffff1673ffffffffffffffffffffffffffffffffffffffff168152602001908152602001600020819055503373ffffffffffffffffffffffffffffffffffffffff166108fc829081150290604051600060405180830381858888f193505050501580156103c2573d6000803e3d6000fd5b5050565b6000818051602081018201805184825260208301602085012081835280955050505050506000915090508060000180546103ff90610cca565b80601f016020809104026020016040519081016040528092919081815260200182805461042b90610cca565b80156104785780601f1061044d57610100808354040283529160200191610478565b820191906000526020600020905b81548152906001019060200180831161045b57829003601f168201915b5050505050908060010160009054906101000a900473ffffffffffffffffffffffffffffffffffffffff16908060020154908060030160009054906101000a900460ff16905084565b600073ffffffffffffffffffffffffffffffffffffffff166000836040516104e99190610aad565b908152602001604051809103902060010160009054906101000a900473ffffffffffffffffffffffffffffffffffffffff1673ffffffffffffffffffffffffffffffffffffffff1614610571576040517f08c379a000000000000000000000000000000000000000000000000000000000815260040161056890610d47565b60405180910390fd5b60405180608001604052808381526020013373ffffffffffffffffffffffffffffffffffffffff168152602001828152602001600115158152506000836040516105bb9190610aad565b908152602001604051809103902060008201518160000190816105de9190610f13565b5060208201518160010160006101000a81548173ffffffffffffffffffffffffffffffffffffffff021916908373ffffffffffffffffffffffffffffffffffffffff1602179055506040820151816002015560608201518160030160006101000a81548160ff0219169083151502179055509050507fe11cd7020b9addfdf5f8931a4fd7d51909dfa3a7774742575adf48e88f4a284d82338360405161068693929190610fe5565b60405180910390a15050565b6000604051905090565b600080fd5b600080fd5b600080fd5b600080fd5b6000601f19601f8301169050919050565b7f4e487b7100000000000000000000000000000000000000000000000000000000600052604160045260246000fd5b6106f9826106b0565b810181811067ffffffffffffffff82111715610718576107176106c1565b5b80604052505050565b600061072b610692565b905061073782826106f0565b919050565b600067ffffffffffffffff821115610757576107566106c1565b5b610760826106b0565b9050602081019050919050565b82818337600083830152505050565b600061078f61078a8461073c565b610721565b9050828152602081018484840111156107ab576107aa6106ab565b5b6107b684828561076d565b509392505050565b600082601f8301126107d3576107d26106a6565b5b81356107e384826020860161077c565b91505092915050565b6000602082840312156108025761080161069c565b5b600082013567ffffffffffffffff8111156108205761081f6106a1565b5b61082c848285016107be565b91505092915050565b600073ffffffffffffffffffffffffffffffffffffffff82169050919050565b600061086082610835565b9050919050565b61087081610855565b811461087b57600080fd5b50565b60008135905061088d81610867565b92915050565b6000602082840312156108a9576108a861069c565b5b60006108b78482850161087e565b91505092915050565b6000819050919050565b6108d3816108c0565b82525050565b60006020820190506108ee60008301846108ca565b92915050565b600081519050919050565b600082825260208201905092915050565b60005b8381101561092e578082015181840152602081019050610913565b60008484015250505050565b6000610945826108f4565b61094f81856108ff565b935061095f818560208601610910565b610968816106b0565b840191505092915050565b61097c81610855565b82525050565b60008115159050919050565b61099781610982565b82525050565b600060808201905081810360008301526109b7818761093a565b90506109c66020830186610973565b6109d360408301856108ca565b6109e0606083018461098e565b95945050505050565b6109f2816108c0565b81146109fd57600080fd5b50565b600081359050610a0f816109e9565b92915050565b60008060408385031215610a2c57610a2b61069c565b5b600083013567ffffffffffffffff811115610a4a57610a496106a1565b5b610a56858286016107be565b9250506020610a6785828601610a00565b9150509250929050565b600081905092915050565b6000610a87826108f4565b610a918185610a71565b9350610aa1818560208601610910565b80840191505092915050565b6000610ab98284610a7c565b915081905092915050565b7f566964656f206973206e6f7420617661696c61626c6500000000000000000000600082015250565b6000610afa6016836108ff565b9150610b0582610ac4565b602082019050919050565b60006020820190508181036000830152610b2981610aed565b9050919050565b7f496e73756666696369656e74207061796d656e74000000000000000000000000600082015250565b6000610b666014836108ff565b9150610b7182610b30565b602082019050919050565b60006020820190508181036000830152610b9581610b59565b9050919050565b7f4e487b7100000000000000000000000000000000000000000000000000000000600052601160045260246000fd5b6000610bd6826108c0565b9150610be1836108c0565b9250828201905080821115610bf957610bf8610b9c565b5b92915050565b60006040820190508181036000830152610c19818561093a565b9050610c286020830184610973565b9392505050565b7f4e6f2066756e647320746f207769746864726177000000000000000000000000600082015250565b6000610c656014836108ff565b9150610c7082610c2f565b602082019050919050565b60006020820190508181036000830152610c9481610c58565b9050919050565b7f4e487b7100000000000000000000000000000000000000000000000000000000600052602260045260246000fd5b60006002820490506001821680610ce257607f821691505b602082108103610cf557610cf4610c9b565b5b50919050565b7f566964656f20616c726561647920657869737473000000000000000000000000600082015250565b6000610d316014836108ff565b9150610d3c82610cfb565b602082019050919050565b60006020820190508181036000830152610d6081610d24565b9050919050565b60008190508160005260206000209050919050565b60006020601f8301049050919050565b600082821b905092915050565b600060088302610dc97fffffffffffffffffffffffffffffffffffffffffffffffffffffffffffffffff82610d8c565b610dd38683610d8c565b95508019841693508086168417925050509392505050565b6000819050919050565b6000610e10610e0b610e06846108c0565b610deb565b6108c0565b9050919050565b6000819050919050565b610e2a83610df5565b610e3e610e3682610e17565b848454610d99565b825550505050565b600090565b610e53610e46565b610e5e818484610e21565b505050565b5b81811015610e8257610e77600082610e4b565b600181019050610e64565b5050565b601f821115610ec757610e9881610d67565b610ea184610d7c565b81016020851015610eb0578190505b610ec4610ebc85610d7c565b830182610e63565b50505b505050565b600082821c905092915050565b6000610eea60001984600802610ecc565b1980831691505092915050565b6000610f038383610ed9565b9150826002028217905092915050565b610f1c826108f4565b67ffffffffffffffff811115610f3557610f346106c1565b5b610f3f8254610cca565b610f4a828285610e86565b600060209050601f831160018114610f7d5760008415610f6b578287015190505b610f758582610ef7565b865550610fdd565b601f198416610f8b86610d67565b60005b82811015610fb357848901518255600182019150602085019450602081019050610f8e565b86831015610fd05784890151610fcc601f891682610ed9565b8355505b6001600288020188555050505b505050505050565b60006060820190508181036000830152610fff818661093a565b905061100e6020830185610973565b61101b60408301846108ca565b94935050505056fea2646970667358221220cfa2479a08b849827a501764d0cd9dbd32130bddf86f7fddace90b9229fd262864736f6c63430008180033",
  "linkReferences": {},
  "deployedLinkReferences": {}
}